{
  "contractName": "WEDG10",
  "abi": [
    {
      "inputs": [],
      "stateMutability": "nonpayable",
      "type": "constructor"
    },
    {
      "anonymous": false,
      "inputs": [
        {
          "indexed": true,
          "internalType": "address",
          "name": "owner",
          "type": "address"
        },
        {
          "indexed": true,
          "internalType": "address",
          "name": "spender",
          "type": "address"
        },
        {
          "indexed": false,
          "internalType": "uint256",
          "name": "value",
          "type": "uint256"
        }
      ],
      "name": "Approval",
      "type": "event"
    },
    {
      "anonymous": false,
      "inputs": [
        {
          "indexed": true,
          "internalType": "address",
          "name": "from",
          "type": "address"
        },
        {
          "indexed": true,
          "internalType": "address",
          "name": "to",
          "type": "address"
        },
        {
          "indexed": false,
          "internalType": "uint256",
          "name": "value",
          "type": "uint256"
        }
      ],
      "name": "Transfer",
      "type": "event"
    },
    {
      "inputs": [],
      "name": "CALLBACK_SUCCESS",
      "outputs": [
        {
          "internalType": "bytes32",
          "name": "",
          "type": "bytes32"
        }
      ],
      "stateMutability": "view",
      "type": "function"
    },
    {
      "inputs": [],
      "name": "PERMIT_TYPEHASH",
      "outputs": [
        {
          "internalType": "bytes32",
          "name": "",
          "type": "bytes32"
        }
      ],
      "stateMutability": "view",
      "type": "function"
    },
    {
      "inputs": [
        {
          "internalType": "address",
          "name": "",
          "type": "address"
        },
        {
          "internalType": "address",
          "name": "",
          "type": "address"
        }
      ],
      "name": "allowance",
      "outputs": [
        {
          "internalType": "uint256",
          "name": "",
          "type": "uint256"
        }
      ],
      "stateMutability": "view",
      "type": "function"
    },
    {
      "inputs": [
        {
          "internalType": "address",
          "name": "",
          "type": "address"
        }
      ],
      "name": "balanceOf",
      "outputs": [
        {
          "internalType": "uint256",
          "name": "",
          "type": "uint256"
        }
      ],
      "stateMutability": "view",
      "type": "function"
    },
    {
      "inputs": [],
      "name": "decimals",
      "outputs": [
        {
          "internalType": "uint8",
          "name": "",
          "type": "uint8"
        }
      ],
      "stateMutability": "view",
      "type": "function"
    },
    {
      "inputs": [],
      "name": "deploymentChainId",
      "outputs": [
        {
          "internalType": "uint256",
          "name": "",
          "type": "uint256"
        }
      ],
      "stateMutability": "view",
      "type": "function"
    },
    {
      "inputs": [],
      "name": "flashMinted",
      "outputs": [
        {
          "internalType": "uint256",
          "name": "",
          "type": "uint256"
        }
      ],
      "stateMutability": "view",
      "type": "function"
    },
    {
      "inputs": [],
      "name": "name",
      "outputs": [
        {
          "internalType": "string",
          "name": "",
          "type": "string"
        }
      ],
      "stateMutability": "view",
      "type": "function"
    },
    {
      "inputs": [
        {
          "internalType": "address",
          "name": "",
          "type": "address"
        }
      ],
      "name": "nonces",
      "outputs": [
        {
          "internalType": "uint256",
          "name": "",
          "type": "uint256"
        }
      ],
      "stateMutability": "view",
      "type": "function"
    },
    {
      "inputs": [],
      "name": "symbol",
      "outputs": [
        {
          "internalType": "string",
          "name": "",
          "type": "string"
        }
      ],
      "stateMutability": "view",
      "type": "function"
    },
    {
      "stateMutability": "payable",
      "type": "receive"
    },
    {
      "inputs": [],
      "name": "DOMAIN_SEPARATOR",
      "outputs": [
        {
          "internalType": "bytes32",
          "name": "",
          "type": "bytes32"
        }
      ],
      "stateMutability": "view",
      "type": "function"
    },
    {
      "inputs": [],
      "name": "totalSupply",
      "outputs": [
        {
          "internalType": "uint256",
          "name": "",
          "type": "uint256"
        }
      ],
      "stateMutability": "view",
      "type": "function"
    },
    {
      "inputs": [],
      "name": "deposit",
      "outputs": [],
      "stateMutability": "payable",
      "type": "function"
    },
    {
      "inputs": [
        {
          "internalType": "address",
          "name": "to",
          "type": "address"
        }
      ],
      "name": "depositTo",
      "outputs": [],
      "stateMutability": "payable",
      "type": "function"
    },
    {
      "inputs": [
        {
          "internalType": "address",
          "name": "to",
          "type": "address"
        },
        {
          "internalType": "bytes",
          "name": "data",
          "type": "bytes"
        }
      ],
      "name": "depositToAndCall",
      "outputs": [
        {
          "internalType": "bool",
          "name": "success",
          "type": "bool"
        }
      ],
      "stateMutability": "payable",
      "type": "function"
    },
    {
      "inputs": [
        {
          "internalType": "address",
          "name": "token",
          "type": "address"
        }
      ],
      "name": "maxFlashLoan",
      "outputs": [
        {
          "internalType": "uint256",
          "name": "",
          "type": "uint256"
        }
      ],
      "stateMutability": "view",
      "type": "function"
    },
    {
      "inputs": [
        {
          "internalType": "address",
          "name": "token",
          "type": "address"
        },
        {
          "internalType": "uint256",
          "name": "",
          "type": "uint256"
        }
      ],
      "name": "flashFee",
      "outputs": [
        {
          "internalType": "uint256",
          "name": "",
          "type": "uint256"
        }
      ],
      "stateMutability": "view",
      "type": "function"
    },
    {
      "inputs": [
        {
          "internalType": "contract IERC3156FlashBorrower",
          "name": "receiver",
          "type": "address"
        },
        {
          "internalType": "address",
          "name": "token",
          "type": "address"
        },
        {
          "internalType": "uint256",
          "name": "value",
          "type": "uint256"
        },
        {
          "internalType": "bytes",
          "name": "data",
          "type": "bytes"
        }
      ],
      "name": "flashLoan",
      "outputs": [
        {
          "internalType": "bool",
          "name": "",
          "type": "bool"
        }
      ],
      "stateMutability": "nonpayable",
      "type": "function"
    },
    {
      "inputs": [
        {
          "internalType": "uint256",
          "name": "value",
          "type": "uint256"
        }
      ],
      "name": "withdraw",
      "outputs": [],
      "stateMutability": "nonpayable",
      "type": "function"
    },
    {
      "inputs": [
        {
          "internalType": "address payable",
          "name": "to",
          "type": "address"
        },
        {
          "internalType": "uint256",
          "name": "value",
          "type": "uint256"
        }
      ],
      "name": "withdrawTo",
      "outputs": [],
      "stateMutability": "nonpayable",
      "type": "function"
    },
    {
      "inputs": [
        {
          "internalType": "address",
          "name": "from",
          "type": "address"
        },
        {
          "internalType": "address payable",
          "name": "to",
          "type": "address"
        },
        {
          "internalType": "uint256",
          "name": "value",
          "type": "uint256"
        }
      ],
      "name": "withdrawFrom",
      "outputs": [],
      "stateMutability": "nonpayable",
      "type": "function"
    },
    {
      "inputs": [
        {
          "internalType": "address",
          "name": "spender",
          "type": "address"
        },
        {
          "internalType": "uint256",
          "name": "value",
          "type": "uint256"
        }
      ],
      "name": "approve",
      "outputs": [
        {
          "internalType": "bool",
          "name": "",
          "type": "bool"
        }
      ],
      "stateMutability": "nonpayable",
      "type": "function"
    },
    {
      "inputs": [
        {
          "internalType": "address",
          "name": "spender",
          "type": "address"
        },
        {
          "internalType": "uint256",
          "name": "value",
          "type": "uint256"
        },
        {
          "internalType": "bytes",
          "name": "data",
          "type": "bytes"
        }
      ],
      "name": "approveAndCall",
      "outputs": [
        {
          "internalType": "bool",
          "name": "",
          "type": "bool"
        }
      ],
      "stateMutability": "nonpayable",
      "type": "function"
    },
    {
      "inputs": [
        {
          "internalType": "address",
          "name": "owner",
          "type": "address"
        },
        {
          "internalType": "address",
          "name": "spender",
          "type": "address"
        },
        {
          "internalType": "uint256",
          "name": "value",
          "type": "uint256"
        },
        {
          "internalType": "uint256",
          "name": "deadline",
          "type": "uint256"
        },
        {
          "internalType": "uint8",
          "name": "v",
          "type": "uint8"
        },
        {
          "internalType": "bytes32",
          "name": "r",
          "type": "bytes32"
        },
        {
          "internalType": "bytes32",
          "name": "s",
          "type": "bytes32"
        }
      ],
      "name": "permit",
      "outputs": [],
      "stateMutability": "nonpayable",
      "type": "function"
    },
    {
      "inputs": [
        {
          "internalType": "address",
          "name": "to",
          "type": "address"
        },
        {
          "internalType": "uint256",
          "name": "value",
          "type": "uint256"
        }
      ],
      "name": "transfer",
      "outputs": [
        {
          "internalType": "bool",
          "name": "",
          "type": "bool"
        }
      ],
      "stateMutability": "nonpayable",
      "type": "function"
    },
    {
      "inputs": [
        {
          "internalType": "address",
          "name": "from",
          "type": "address"
        },
        {
          "internalType": "address",
          "name": "to",
          "type": "address"
        },
        {
          "internalType": "uint256",
          "name": "value",
          "type": "uint256"
        }
      ],
      "name": "transferFrom",
      "outputs": [
        {
          "internalType": "bool",
          "name": "",
          "type": "bool"
        }
      ],
      "stateMutability": "nonpayable",
      "type": "function"
    },
    {
      "inputs": [
        {
          "internalType": "address",
          "name": "to",
          "type": "address"
        },
        {
          "internalType": "uint256",
          "name": "value",
          "type": "uint256"
        },
        {
          "internalType": "bytes",
          "name": "data",
          "type": "bytes"
        }
      ],
      "name": "transferAndCall",
      "outputs": [
        {
          "internalType": "bool",
          "name": "",
          "type": "bool"
        }
      ],
      "stateMutability": "nonpayable",
      "type": "function"
    }
  ],
  "bytecode": "0x6101006040527f439148f0bbc682ca079e46d6e2c2f0c1e3b820f1a291b069d8882abf8cf18dd96080908152507f6e71edae12b1b97f4d1f60370fef10105fa2faae0126114a169c64845d6126c960a0908152503480156200006057600080fd5b5060004690508060c081815250506200007f816200008d60201b60201c565b60e08181525050506200018b565b60007f8b73c3c69bb8fe3d512ecc4cf759cc79239f7b179b0ffacaa9a75d522b39400f6040518060400160405280601481526020017f5772617070656420456467657761726520763130000000000000000000000000815250805190602001206040518060400160405280600181526020017f3100000000000000000000000000000000000000000000000000000000000000815250805190602001208430604051602001808681526020018581526020018481526020018381526020018273ffffffffffffffffffffffffffffffffffffffff16815260200195505050505050604051602081830303815290604052805190602001209050919050565b60805160a05160c05160e051613b03620001da6000398061199952806135e6525080611964528061337052806135b152508061193552806134c55250806120ef528061281e5250613b036000f3fe6080604052600436106101a05760003560e01c806370a08231116100ec578063b760faf91161008a578063d0e30db011610064578063d0e30db014610bc6578063d505accf14610bd0578063d9d98ce414610c76578063dd62ed3e14610ce557610259565b8063b760faf914610a91578063cae9ca5114610ad5578063cd0d009614610b9b57610259565b80638b28d32f116100c65780638b28d32f146108ea5780639555a9421461091557806395d89b4114610990578063a9059cbb14610a2057610259565b806370a08231146107f55780637ecebe001461085a5780638237e538146108bf57610259565b806330adf81f116101595780634000aea0116101335780634000aea0146105355780635cffe9de146105fb5780635ddb7d7e146106e1578063613255ab1461079057610259565b806330adf81f146104b1578063313ce567146104dc5780633644e5151461050a57610259565b806306fdde031461025e578063095ea7b3146102ee57806318160ddd1461035f578063205c28781461038a57806323b872dd146103e55780632e1a7d4d1461047657610259565b3661025957346000803373ffffffffffffffffffffffffffffffffffffffff1673ffffffffffffffffffffffffffffffffffffffff168152602001908152602001600020600082825401925050819055503373ffffffffffffffffffffffffffffffffffffffff16600073ffffffffffffffffffffffffffffffffffffffff167fddf252ad1be2c89b69c2b068fc378daa952ba7f163c4a11628f55a4df523b3ef346040518082815260200191505060405180910390a3005b600080fd5b34801561026a57600080fd5b50610273610d6a565b6040518080602001828103825283818151815260200191508051906020019080838360005b838110156102b3578082015181840152602081019050610298565b50505050905090810190601f1680156102e05780820380516001836020036101000a031916815260200191505b509250505060405180910390f35b3480156102fa57600080fd5b506103476004803603604081101561031157600080fd5b81019080803573ffffffffffffffffffffffffffffffffffffffff16906020019092919080359060200190929190505050610da3565b60405180821515815260200191505060405180910390f35b34801561036b57600080fd5b50610374610e95565b6040518082815260200191505060405180910390f35b34801561039657600080fd5b506103e3600480360360408110156103ad57600080fd5b81019080803573ffffffffffffffffffffffffffffffffffffffff16906020019092919080359060200190929190505050610ea1565b005b3480156103f157600080fd5b5061045e6004803603606081101561040857600080fd5b81019080803573ffffffffffffffffffffffffffffffffffffffff169060200190929190803573ffffffffffffffffffffffffffffffffffffffff169060200190929190803590602001909291905050506110ca565b60405180821515815260200191505060405180910390f35b34801561048257600080fd5b506104af6004803603602081101561049957600080fd5b810190808035906020019092919050505061170b565b005b3480156104bd57600080fd5b506104c6611933565b6040518082815260200191505060405180910390f35b3480156104e857600080fd5b506104f1611957565b604051808260ff16815260200191505060405180910390f35b34801561051657600080fd5b5061051f61195c565b6040518082815260200191505060405180910390f35b34801561054157600080fd5b506105e36004803603606081101561055857600080fd5b81019080803573ffffffffffffffffffffffffffffffffffffffff169060200190929190803590602001909291908035906020019064010000000081111561059f57600080fd5b8201836020820111156105b157600080fd5b803590602001918460018302840111640100000000831117156105d357600080fd5b90919293919293905050506119bf565b60405180821515815260200191505060405180910390f35b34801561060757600080fd5b506106c96004803603608081101561061e57600080fd5b81019080803573ffffffffffffffffffffffffffffffffffffffff169060200190929190803573ffffffffffffffffffffffffffffffffffffffff169060200190929190803590602001909291908035906020019064010000000081111561068557600080fd5b82018360208201111561069757600080fd5b803590602001918460018302840111640100000000831117156106b957600080fd5b9091929391929390505050611e9c565b60405180821515815260200191505060405180910390f35b610778600480360360408110156106f757600080fd5b81019080803573ffffffffffffffffffffffffffffffffffffffff1690602001909291908035906020019064010000000081111561073457600080fd5b82018360208201111561074657600080fd5b8035906020019184600183028401116401000000008311171561076857600080fd5b90919293919293905050506125f6565b60405180821515815260200191505060405180910390f35b34801561079c57600080fd5b506107df600480360360208110156107b357600080fd5b81019080803573ffffffffffffffffffffffffffffffffffffffff169060200190929190505050612793565b6040518082815260200191505060405180910390f35b34801561080157600080fd5b506108446004803603602081101561081857600080fd5b81019080803573ffffffffffffffffffffffffffffffffffffffff1690602001909291905050506127ec565b6040518082815260200191505060405180910390f35b34801561086657600080fd5b506108a96004803603602081101561087d57600080fd5b81019080803573ffffffffffffffffffffffffffffffffffffffff169060200190929190505050612804565b6040518082815260200191505060405180910390f35b3480156108cb57600080fd5b506108d461281c565b6040518082815260200191505060405180910390f35b3480156108f657600080fd5b506108ff612840565b6040518082815260200191505060405180910390f35b34801561092157600080fd5b5061098e6004803603606081101561093857600080fd5b81019080803573ffffffffffffffffffffffffffffffffffffffff169060200190929190803573ffffffffffffffffffffffffffffffffffffffff16906020019092919080359060200190929190505050612846565b005b34801561099c57600080fd5b506109a5612cb2565b6040518080602001828103825283818151815260200191508051906020019080838360005b838110156109e55780820151818401526020810190506109ca565b50505050905090810190601f168015610a125780820380516001836020036101000a031916815260200191505b509250505060405180910390f35b348015610a2c57600080fd5b50610a7960048036036040811015610a4357600080fd5b81019080803573ffffffffffffffffffffffffffffffffffffffff16906020019092919080359060200190929190505050612ceb565b60405180821515815260200191505060405180910390f35b610ad360048036036020811015610aa757600080fd5b81019080803573ffffffffffffffffffffffffffffffffffffffff1690602001909291905050506130e8565b005b348015610ae157600080fd5b50610b8360048036036060811015610af857600080fd5b81019080803573ffffffffffffffffffffffffffffffffffffffff1690602001909291908035906020019092919080359060200190640100000000811115610b3f57600080fd5b820183602082011115610b5157600080fd5b80359060200191846001830284011164010000000083111715610b7357600080fd5b909192939192939050505061319d565b60405180821515815260200191505060405180910390f35b348015610ba757600080fd5b50610bb061336e565b6040518082815260200191505060405180910390f35b610bce613392565b005b348015610bdc57600080fd5b50610c74600480360360e0811015610bf357600080fd5b81019080803573ffffffffffffffffffffffffffffffffffffffff169060200190929190803573ffffffffffffffffffffffffffffffffffffffff1690602001909291908035906020019092919080359060200190929190803560ff1690602001909291908035906020019092919080359060200190929190505050613446565b005b348015610c8257600080fd5b50610ccf60048036036040811015610c9957600080fd5b81019080803573ffffffffffffffffffffffffffffffffffffffff16906020019092919080359060200190929190505050613893565b6040518082815260200191505060405180910390f35b348015610cf157600080fd5b50610d5460048036036040811015610d0857600080fd5b81019080803573ffffffffffffffffffffffffffffffffffffffff169060200190929190803573ffffffffffffffffffffffffffffffffffffffff169060200190929190505050613940565b6040518082815260200191505060405180910390f35b6040518060400160405280601481526020017f577261707065642045646765776172652076313000000000000000000000000081525081565b600081600260003373ffffffffffffffffffffffffffffffffffffffff1673ffffffffffffffffffffffffffffffffffffffff16815260200190815260200160002060008573ffffffffffffffffffffffffffffffffffffffff1673ffffffffffffffffffffffffffffffffffffffff168152602001908152602001600020819055508273ffffffffffffffffffffffffffffffffffffffff163373ffffffffffffffffffffffffffffffffffffffff167f8c5be1e5ebec7d5bd14f71427d1e84f3dd0314c0f7b2291e5b200ac8c7c3b925846040518082815260200191505060405180910390a36001905092915050565b60006003544701905090565b60008060003373ffffffffffffffffffffffffffffffffffffffff1673ffffffffffffffffffffffffffffffffffffffff16815260200190815260200160002054905081811015610f3d576040517f08c379a0000000000000000000000000000000000000000000000000000000008152600401808060200182810382526021815260200180613a896021913960400191505060405180910390fd5b8181036000803373ffffffffffffffffffffffffffffffffffffffff1673ffffffffffffffffffffffffffffffffffffffff16815260200190815260200160002081905550600073ffffffffffffffffffffffffffffffffffffffff163373ffffffffffffffffffffffffffffffffffffffff167fddf252ad1be2c89b69c2b068fc378daa952ba7f163c4a11628f55a4df523b3ef846040518082815260200191505060405180910390a360008373ffffffffffffffffffffffffffffffffffffffff168360405180600001905060006040518083038185875af1925050503d8060008114611048576040519150601f19603f3d011682016040523d82523d6000602084013e61104d565b606091505b50509050806110c4576040517f08c379a00000000000000000000000000000000000000000000000000000000081526004018080602001828103825260198152602001807f574544473a20455448207472616e73666572206661696c65640000000000000081525060200191505060405180910390fd5b50505050565b60003373ffffffffffffffffffffffffffffffffffffffff168473ffffffffffffffffffffffffffffffffffffffff161461130e576000600260008673ffffffffffffffffffffffffffffffffffffffff1673ffffffffffffffffffffffffffffffffffffffff16815260200190815260200160002060003373ffffffffffffffffffffffffffffffffffffffff1673ffffffffffffffffffffffffffffffffffffffff1681526020019081526020016000205490507fffffffffffffffffffffffffffffffffffffffffffffffffffffffffffffffff811461130c578281101561121d576040517f08c379a000000000000000000000000000000000000000000000000000000000815260040180806020018281038252601f8152602001807f574544473a2072657175657374206578636565647320616c6c6f77616e63650081525060200191505060405180910390fd5b6000838203905080600260008873ffffffffffffffffffffffffffffffffffffffff1673ffffffffffffffffffffffffffffffffffffffff16815260200190815260200160002060003373ffffffffffffffffffffffffffffffffffffffff1673ffffffffffffffffffffffffffffffffffffffff168152602001908152602001600020819055503373ffffffffffffffffffffffffffffffffffffffff168673ffffffffffffffffffffffffffffffffffffffff167f8c5be1e5ebec7d5bd14f71427d1e84f3dd0314c0f7b2291e5b200ac8c7c3b925836040518082815260200191505060405180910390a3505b505b600073ffffffffffffffffffffffffffffffffffffffff168373ffffffffffffffffffffffffffffffffffffffff16146114da5760008060008673ffffffffffffffffffffffffffffffffffffffff1673ffffffffffffffffffffffffffffffffffffffff168152602001908152602001600020549050828110156113de576040517f08c379a0000000000000000000000000000000000000000000000000000000008152600401808060200182810382526025815260200180613a646025913960400191505060405180910390fd5b8281036000808773ffffffffffffffffffffffffffffffffffffffff1673ffffffffffffffffffffffffffffffffffffffff16815260200190815260200160002081905550826000808673ffffffffffffffffffffffffffffffffffffffff1673ffffffffffffffffffffffffffffffffffffffff168152602001908152602001600020600082825401925050819055508373ffffffffffffffffffffffffffffffffffffffff168573ffffffffffffffffffffffffffffffffffffffff167fddf252ad1be2c89b69c2b068fc378daa952ba7f163c4a11628f55a4df523b3ef856040518082815260200191505060405180910390a350611700565b60008060008673ffffffffffffffffffffffffffffffffffffffff1673ffffffffffffffffffffffffffffffffffffffff16815260200190815260200160002054905082811015611576576040517f08c379a0000000000000000000000000000000000000000000000000000000008152600401808060200182810382526021815260200180613a896021913960400191505060405180910390fd5b8281036000808773ffffffffffffffffffffffffffffffffffffffff1673ffffffffffffffffffffffffffffffffffffffff16815260200190815260200160002081905550600073ffffffffffffffffffffffffffffffffffffffff168573ffffffffffffffffffffffffffffffffffffffff167fddf252ad1be2c89b69c2b068fc378daa952ba7f163c4a11628f55a4df523b3ef856040518082815260200191505060405180910390a360003373ffffffffffffffffffffffffffffffffffffffff168460405180600001905060006040518083038185875af1925050503d8060008114611681576040519150601f19603f3d011682016040523d82523d6000602084013e611686565b606091505b50509050806116fd576040517f08c379a00000000000000000000000000000000000000000000000000000000081526004018080602001828103825260198152602001807f574544473a20455448207472616e73666572206661696c65640000000000000081525060200191505060405180910390fd5b50505b600190509392505050565b60008060003373ffffffffffffffffffffffffffffffffffffffff1673ffffffffffffffffffffffffffffffffffffffff168152602001908152602001600020549050818110156117a7576040517f08c379a0000000000000000000000000000000000000000000000000000000008152600401808060200182810382526021815260200180613a896021913960400191505060405180910390fd5b8181036000803373ffffffffffffffffffffffffffffffffffffffff1673ffffffffffffffffffffffffffffffffffffffff16815260200190815260200160002081905550600073ffffffffffffffffffffffffffffffffffffffff163373ffffffffffffffffffffffffffffffffffffffff167fddf252ad1be2c89b69c2b068fc378daa952ba7f163c4a11628f55a4df523b3ef846040518082815260200191505060405180910390a360003373ffffffffffffffffffffffffffffffffffffffff168360405180600001905060006040518083038185875af1925050503d80600081146118b2576040519150601f19603f3d011682016040523d82523d6000602084013e6118b7565b606091505b505090508061192e576040517f08c379a00000000000000000000000000000000000000000000000000000000081526004018080602001828103825260198152602001807f574544473a20455448207472616e73666572206661696c65640000000000000081525060200191505060405180910390fd5b505050565b7f000000000000000000000000000000000000000000000000000000000000000081565b601281565b6000804690507f000000000000000000000000000000000000000000000000000000000000000081146119975761199281613965565b6119b9565b7f00000000000000000000000000000000000000000000000000000000000000005b91505090565b60008073ffffffffffffffffffffffffffffffffffffffff168573ffffffffffffffffffffffffffffffffffffffff1614611b8c5760008060003373ffffffffffffffffffffffffffffffffffffffff1673ffffffffffffffffffffffffffffffffffffffff16815260200190815260200160002054905084811015611a90576040517f08c379a0000000000000000000000000000000000000000000000000000000008152600401808060200182810382526025815260200180613a646025913960400191505060405180910390fd5b8481036000803373ffffffffffffffffffffffffffffffffffffffff1673ffffffffffffffffffffffffffffffffffffffff16815260200190815260200160002081905550846000808873ffffffffffffffffffffffffffffffffffffffff1673ffffffffffffffffffffffffffffffffffffffff168152602001908152602001600020600082825401925050819055508573ffffffffffffffffffffffffffffffffffffffff163373ffffffffffffffffffffffffffffffffffffffff167fddf252ad1be2c89b69c2b068fc378daa952ba7f163c4a11628f55a4df523b3ef876040518082815260200191505060405180910390a350611db2565b60008060003373ffffffffffffffffffffffffffffffffffffffff1673ffffffffffffffffffffffffffffffffffffffff16815260200190815260200160002054905084811015611c28576040517f08c379a0000000000000000000000000000000000000000000000000000000008152600401808060200182810382526021815260200180613a896021913960400191505060405180910390fd5b8481036000803373ffffffffffffffffffffffffffffffffffffffff1673ffffffffffffffffffffffffffffffffffffffff16815260200190815260200160002081905550600073ffffffffffffffffffffffffffffffffffffffff163373ffffffffffffffffffffffffffffffffffffffff167fddf252ad1be2c89b69c2b068fc378daa952ba7f163c4a11628f55a4df523b3ef876040518082815260200191505060405180910390a360003373ffffffffffffffffffffffffffffffffffffffff168660405180600001905060006040518083038185875af1925050503d8060008114611d33576040519150601f19603f3d011682016040523d82523d6000602084013e611d38565b606091505b5050905080611daf576040517f08c379a00000000000000000000000000000000000000000000000000000000081526004018080602001828103825260198152602001807f574544473a20455448207472616e73666572206661696c65640000000000000081525060200191505060405180910390fd5b50505b8473ffffffffffffffffffffffffffffffffffffffff1663a4c0ed36338686866040518563ffffffff1660e01b8152600401808573ffffffffffffffffffffffffffffffffffffffff168152602001848152602001806020018281038252848482818152602001925080828437600081840152601f19601f82011690508083019250505095505050505050602060405180830381600087803b158015611e5757600080fd5b505af1158015611e6b573d6000803e3d6000fd5b505050506040513d6020811015611e8157600080fd5b81019080805190602001909291905050509050949350505050565b60003073ffffffffffffffffffffffffffffffffffffffff168573ffffffffffffffffffffffffffffffffffffffff1614611f3f576040517f08c379a000000000000000000000000000000000000000000000000000000000815260040180806020018281038252601c8152602001807f574544473a20666c617368206d696e74206f6e6c79205745444731300000000081525060200191505060405180910390fd5b6dffffffffffffffffffffffffffff8016841115611fa8576040517f08c379a0000000000000000000000000000000000000000000000000000000008152600401808060200182810382526024815260200180613aaa6024913960400191505060405180910390fd5b83600354016003819055506dffffffffffffffffffffffffffff8016600354111561203b576040517f08c379a000000000000000000000000000000000000000000000000000000000815260040180806020018281038252601f8152602001807f574544473a20746f74616c206c6f616e206c696d69742065786365656465640081525060200191505060405180910390fd5b836000808873ffffffffffffffffffffffffffffffffffffffff1673ffffffffffffffffffffffffffffffffffffffff168152602001908152602001600020600082825401925050819055508573ffffffffffffffffffffffffffffffffffffffff16600073ffffffffffffffffffffffffffffffffffffffff167fddf252ad1be2c89b69c2b068fc378daa952ba7f163c4a11628f55a4df523b3ef866040518082815260200191505060405180910390a37f00000000000000000000000000000000000000000000000000000000000000008673ffffffffffffffffffffffffffffffffffffffff166323e30c8b333088600089896040518763ffffffff1660e01b8152600401808773ffffffffffffffffffffffffffffffffffffffff1681526020018673ffffffffffffffffffffffffffffffffffffffff168152602001858152602001848152602001806020018281038252848482818152602001925080828437600081840152601f19601f820116905080830192505050975050505050505050602060405180830381600087803b1580156121da57600080fd5b505af11580156121ee573d6000803e3d6000fd5b505050506040513d602081101561220457600080fd5b810190808051906020019092919050505014612288576040517f08c379a00000000000000000000000000000000000000000000000000000000081526004018080602001828103825260178152602001807f574544473a20666c617368206c6f616e206661696c656400000000000000000081525060200191505060405180910390fd5b6000600260008873ffffffffffffffffffffffffffffffffffffffff1673ffffffffffffffffffffffffffffffffffffffff16815260200190815260200160002060003073ffffffffffffffffffffffffffffffffffffffff1673ffffffffffffffffffffffffffffffffffffffff1681526020019081526020016000205490507fffffffffffffffffffffffffffffffffffffffffffffffffffffffffffffffff811461249557848110156123a6576040517f08c379a000000000000000000000000000000000000000000000000000000000815260040180806020018281038252601f8152602001807f574544473a2072657175657374206578636565647320616c6c6f77616e63650081525060200191505060405180910390fd5b6000858203905080600260008a73ffffffffffffffffffffffffffffffffffffffff1673ffffffffffffffffffffffffffffffffffffffff16815260200190815260200160002060003073ffffffffffffffffffffffffffffffffffffffff1673ffffffffffffffffffffffffffffffffffffffff168152602001908152602001600020819055503073ffffffffffffffffffffffffffffffffffffffff168873ffffffffffffffffffffffffffffffffffffffff167f8c5be1e5ebec7d5bd14f71427d1e84f3dd0314c0f7b2291e5b200ac8c7c3b925836040518082815260200191505060405180910390a3505b60008060008973ffffffffffffffffffffffffffffffffffffffff1673ffffffffffffffffffffffffffffffffffffffff16815260200190815260200160002054905085811015612531576040517f08c379a0000000000000000000000000000000000000000000000000000000008152600401808060200182810382526021815260200180613a896021913960400191505060405180910390fd5b8581036000808a73ffffffffffffffffffffffffffffffffffffffff1673ffffffffffffffffffffffffffffffffffffffff16815260200190815260200160002081905550600073ffffffffffffffffffffffffffffffffffffffff168873ffffffffffffffffffffffffffffffffffffffff167fddf252ad1be2c89b69c2b068fc378daa952ba7f163c4a11628f55a4df523b3ef886040518082815260200191505060405180910390a3856003540360038190555060019250505095945050505050565b6000346000808673ffffffffffffffffffffffffffffffffffffffff1673ffffffffffffffffffffffffffffffffffffffff168152602001908152602001600020600082825401925050819055508373ffffffffffffffffffffffffffffffffffffffff16600073ffffffffffffffffffffffffffffffffffffffff167fddf252ad1be2c89b69c2b068fc378daa952ba7f163c4a11628f55a4df523b3ef346040518082815260200191505060405180910390a38373ffffffffffffffffffffffffffffffffffffffff1663a4c0ed36333486866040518563ffffffff1660e01b8152600401808573ffffffffffffffffffffffffffffffffffffffff168152602001848152602001806020018281038252848482818152602001925080828437600081840152601f19601f82011690508083019250505095505050505050602060405180830381600087803b15801561274f57600080fd5b505af1158015612763573d6000803e3d6000fd5b505050506040513d602081101561277957600080fd5b810190808051906020019092919050505090509392505050565b60003073ffffffffffffffffffffffffffffffffffffffff168273ffffffffffffffffffffffffffffffffffffffff16146127cf5760006127e5565b6003546dffffffffffffffffffffffffffff8016035b9050919050565b60006020528060005260406000206000915090505481565b60016020528060005260406000206000915090505481565b7f000000000000000000000000000000000000000000000000000000000000000081565b60035481565b3373ffffffffffffffffffffffffffffffffffffffff168373ffffffffffffffffffffffffffffffffffffffff1614612a88576000600260008573ffffffffffffffffffffffffffffffffffffffff1673ffffffffffffffffffffffffffffffffffffffff16815260200190815260200160002060003373ffffffffffffffffffffffffffffffffffffffff1673ffffffffffffffffffffffffffffffffffffffff1681526020019081526020016000205490507fffffffffffffffffffffffffffffffffffffffffffffffffffffffffffffffff8114612a865781811015612997576040517f08c379a000000000000000000000000000000000000000000000000000000000815260040180806020018281038252601f8152602001807f574544473a2072657175657374206578636565647320616c6c6f77616e63650081525060200191505060405180910390fd5b6000828203905080600260008773ffffffffffffffffffffffffffffffffffffffff1673ffffffffffffffffffffffffffffffffffffffff16815260200190815260200160002060003373ffffffffffffffffffffffffffffffffffffffff1673ffffffffffffffffffffffffffffffffffffffff168152602001908152602001600020819055503373ffffffffffffffffffffffffffffffffffffffff168573ffffffffffffffffffffffffffffffffffffffff167f8c5be1e5ebec7d5bd14f71427d1e84f3dd0314c0f7b2291e5b200ac8c7c3b925836040518082815260200191505060405180910390a3505b505b60008060008573ffffffffffffffffffffffffffffffffffffffff1673ffffffffffffffffffffffffffffffffffffffff16815260200190815260200160002054905081811015612b24576040517f08c379a0000000000000000000000000000000000000000000000000000000008152600401808060200182810382526021815260200180613a896021913960400191505060405180910390fd5b8181036000808673ffffffffffffffffffffffffffffffffffffffff1673ffffffffffffffffffffffffffffffffffffffff16815260200190815260200160002081905550600073ffffffffffffffffffffffffffffffffffffffff168473ffffffffffffffffffffffffffffffffffffffff167fddf252ad1be2c89b69c2b068fc378daa952ba7f163c4a11628f55a4df523b3ef846040518082815260200191505060405180910390a360008373ffffffffffffffffffffffffffffffffffffffff168360405180600001905060006040518083038185875af1925050503d8060008114612c2f576040519150601f19603f3d011682016040523d82523d6000602084013e612c34565b606091505b5050905080612cab576040517f08c379a000000000000000000000000000000000000000000000000000000000815260040180806020018281038252601b8152602001807f574544473a204574686572207472616e73666572206661696c6564000000000081525060200191505060405180910390fd5b5050505050565b6040518060400160405280600681526020017f574544473130000000000000000000000000000000000000000000000000000081525081565b60008073ffffffffffffffffffffffffffffffffffffffff168373ffffffffffffffffffffffffffffffffffffffff1614612eb85760008060003373ffffffffffffffffffffffffffffffffffffffff1673ffffffffffffffffffffffffffffffffffffffff16815260200190815260200160002054905082811015612dbc576040517f08c379a0000000000000000000000000000000000000000000000000000000008152600401808060200182810382526025815260200180613a646025913960400191505060405180910390fd5b8281036000803373ffffffffffffffffffffffffffffffffffffffff1673ffffffffffffffffffffffffffffffffffffffff16815260200190815260200160002081905550826000808673ffffffffffffffffffffffffffffffffffffffff1673ffffffffffffffffffffffffffffffffffffffff168152602001908152602001600020600082825401925050819055508373ffffffffffffffffffffffffffffffffffffffff163373ffffffffffffffffffffffffffffffffffffffff167fddf252ad1be2c89b69c2b068fc378daa952ba7f163c4a11628f55a4df523b3ef856040518082815260200191505060405180910390a3506130de565b60008060003373ffffffffffffffffffffffffffffffffffffffff1673ffffffffffffffffffffffffffffffffffffffff16815260200190815260200160002054905082811015612f54576040517f08c379a0000000000000000000000000000000000000000000000000000000008152600401808060200182810382526021815260200180613a896021913960400191505060405180910390fd5b8281036000803373ffffffffffffffffffffffffffffffffffffffff1673ffffffffffffffffffffffffffffffffffffffff16815260200190815260200160002081905550600073ffffffffffffffffffffffffffffffffffffffff163373ffffffffffffffffffffffffffffffffffffffff167fddf252ad1be2c89b69c2b068fc378daa952ba7f163c4a11628f55a4df523b3ef856040518082815260200191505060405180910390a360003373ffffffffffffffffffffffffffffffffffffffff168460405180600001905060006040518083038185875af1925050503d806000811461305f576040519150601f19603f3d011682016040523d82523d6000602084013e613064565b606091505b50509050806130db576040517f08c379a00000000000000000000000000000000000000000000000000000000081526004018080602001828103825260198152602001807f574544473a20455448207472616e73666572206661696c65640000000000000081525060200191505060405180910390fd5b50505b6001905092915050565b346000808373ffffffffffffffffffffffffffffffffffffffff1673ffffffffffffffffffffffffffffffffffffffff168152602001908152602001600020600082825401925050819055508073ffffffffffffffffffffffffffffffffffffffff16600073ffffffffffffffffffffffffffffffffffffffff167fddf252ad1be2c89b69c2b068fc378daa952ba7f163c4a11628f55a4df523b3ef346040518082815260200191505060405180910390a350565b600083600260003373ffffffffffffffffffffffffffffffffffffffff1673ffffffffffffffffffffffffffffffffffffffff16815260200190815260200160002060008773ffffffffffffffffffffffffffffffffffffffff1673ffffffffffffffffffffffffffffffffffffffff168152602001908152602001600020819055508473ffffffffffffffffffffffffffffffffffffffff163373ffffffffffffffffffffffffffffffffffffffff167f8c5be1e5ebec7d5bd14f71427d1e84f3dd0314c0f7b2291e5b200ac8c7c3b925866040518082815260200191505060405180910390a38473ffffffffffffffffffffffffffffffffffffffff1662ba451f338686866040518563ffffffff1660e01b8152600401808573ffffffffffffffffffffffffffffffffffffffff168152602001848152602001806020018281038252848482818152602001925080828437600081840152601f19601f82011690508083019250505095505050505050602060405180830381600087803b15801561332957600080fd5b505af115801561333d573d6000803e3d6000fd5b505050506040513d602081101561335357600080fd5b81019080805190602001909291905050509050949350505050565b7f000000000000000000000000000000000000000000000000000000000000000081565b346000803373ffffffffffffffffffffffffffffffffffffffff1673ffffffffffffffffffffffffffffffffffffffff168152602001908152602001600020600082825401925050819055503373ffffffffffffffffffffffffffffffffffffffff16600073ffffffffffffffffffffffffffffffffffffffff167fddf252ad1be2c89b69c2b068fc378daa952ba7f163c4a11628f55a4df523b3ef346040518082815260200191505060405180910390a3565b834211156134bc576040517f08c379a00000000000000000000000000000000000000000000000000000000081526004018080602001828103825260148152602001807f574544473a2045787069726564207065726d697400000000000000000000000081525060200191505060405180910390fd5b600046905060007f0000000000000000000000000000000000000000000000000000000000000000898989600160008e73ffffffffffffffffffffffffffffffffffffffff1673ffffffffffffffffffffffffffffffffffffffff1681526020019081526020016000206000815480929190600101919050558a604051602001808781526020018673ffffffffffffffffffffffffffffffffffffffff1681526020018573ffffffffffffffffffffffffffffffffffffffff168152602001848152602001838152602001828152602001965050505050505060405160208183030381529060405280519060200120905060007f000000000000000000000000000000000000000000000000000000000000000083146135e4576135df83613965565b613606565b7f00000000000000000000000000000000000000000000000000000000000000005b8260405160200180807f190100000000000000000000000000000000000000000000000000000000000081525060020183815260200182815260200192505050604051602081830303815290604052805190602001209050600060018288888860405160008152602001604052604051808581526020018460ff1681526020018381526020018281526020019450505050506020604051602081039080840390855afa1580156136ba573d6000803e3d6000fd5b505050602060405103519050600073ffffffffffffffffffffffffffffffffffffffff168173ffffffffffffffffffffffffffffffffffffffff161415801561372e57508a73ffffffffffffffffffffffffffffffffffffffff168173ffffffffffffffffffffffffffffffffffffffff16145b6137a0576040517f08c379a00000000000000000000000000000000000000000000000000000000081526004018080602001828103825260148152602001807f574544473a20696e76616c6964207065726d697400000000000000000000000081525060200191505060405180910390fd5b88600260008d73ffffffffffffffffffffffffffffffffffffffff1673ffffffffffffffffffffffffffffffffffffffff16815260200190815260200160002060008c73ffffffffffffffffffffffffffffffffffffffff1673ffffffffffffffffffffffffffffffffffffffff168152602001908152602001600020819055508973ffffffffffffffffffffffffffffffffffffffff168b73ffffffffffffffffffffffffffffffffffffffff167f8c5be1e5ebec7d5bd14f71427d1e84f3dd0314c0f7b2291e5b200ac8c7c3b9258b6040518082815260200191505060405180910390a35050505050505050505050565b60003073ffffffffffffffffffffffffffffffffffffffff168373ffffffffffffffffffffffffffffffffffffffff1614613936576040517f08c379a000000000000000000000000000000000000000000000000000000000815260040180806020018281038252601c8152602001807f574544473a20666c617368206d696e74206f6e6c79205745444731300000000081525060200191505060405180910390fd5b6000905092915050565b6002602052816000526040600020602052806000526040600020600091509150505481565b60007f8b73c3c69bb8fe3d512ecc4cf759cc79239f7b179b0ffacaa9a75d522b39400f6040518060400160405280601481526020017f5772617070656420456467657761726520763130000000000000000000000000815250805190602001206040518060400160405280600181526020017f3100000000000000000000000000000000000000000000000000000000000000815250805190602001208430604051602001808681526020018581526020018481526020018381526020018273ffffffffffffffffffffffffffffffffffffffff1681526020019550505050505060405160208183030381529060405280519060200120905091905056fe574544473a207472616e7366657220616d6f756e7420657863656564732062616c616e6365574544473a206275726e20616d6f756e7420657863656564732062616c616e6365574544473a20696e646976696475616c206c6f616e206c696d6974206578636565646564a26469706673582212209424e1c97e9ce5a7a77f87022bca42a8e428df420a8cfe5977e275d2beb5559664736f6c63430007060033",
  "immutableReferences": {
    "77": [
      {
        "length": 32,
        "start": 8431
      },
      {
        "length": 32,
        "start": 10270
      }
    ],
    "82": [
      {
        "length": 32,
        "start": 6453
      },
      {
        "length": 32,
        "start": 13509
      }
    ],
    "84": [
      {
        "length": 32,
        "start": 6500
      },
      {
        "length": 32,
        "start": 13168
      },
      {
        "length": 32,
        "start": 13745
      }
    ],
    "86": [
      {
        "length": 32,
        "start": 6553
      },
      {
        "length": 32,
        "start": 13798
      }
    ]
  },
  "source": "// SPDX-License-Identifier: GPL-3.0-or-later\n// Copyright (C) 2015, 2016, 2017 Dapphub\n// Adapted by Ethereum Community 2021\npragma solidity 0.7.6;\n\nimport \"./interfaces/IWEDG10.sol\";\nimport \"erc3156/contracts/interfaces/IERC3156FlashBorrower.sol\";\n\ninterface ITransferReceiver {\n    function onTokenTransfer(address, uint, bytes calldata) external returns (bool);\n}\n\ninterface IApprovalReceiver {\n    function onTokenApproval(address, uint, bytes calldata) external returns (bool);\n}\n\n/// @dev Wrapped Ether v10 (WEDG10) is an Ether (ETH) ERC-20 wrapper. You can `deposit` ETH and obtain a WEDG10 balance which can then be operated as an ERC-20 token. You can\n/// `withdraw` ETH from WEDG10, which will then burn WEDG10 token in your wallet. The amount of WEDG10 token in any wallet is always identical to the\n/// balance of ETH deposited minus the ETH withdrawn with that specific wallet.\ncontract WEDG10 is IWEDG10 {\n\n    string public constant name = \"Wrapped Edgeware v10\";\n    string public constant symbol = \"WEDG10\";\n    uint8  public constant decimals = 18;\n\n    bytes32 public immutable CALLBACK_SUCCESS = keccak256(\"ERC3156FlashBorrower.onFlashLoan\");\n    bytes32 public immutable PERMIT_TYPEHASH = keccak256(\"Permit(address owner,address spender,uint256 value,uint256 nonce,uint256 deadline)\");\n    uint256 public immutable deploymentChainId;\n    bytes32 private immutable _DOMAIN_SEPARATOR;\n\n    /// @dev Records amount of WEDG10 token owned by account.\n    mapping (address => uint256) public override balanceOf;\n\n    /// @dev Records current ERC2612 nonce for account. This value must be included whenever signature is generated for {permit}.\n    /// Every successful call to {permit} increases account's nonce by one. This prevents signature from being used multiple times.\n    mapping (address => uint256) public override nonces;\n\n    /// @dev Records number of WEDG10 token that account (second) will be allowed to spend on behalf of another account (first) through {transferFrom}.\n    mapping (address => mapping (address => uint256)) public override allowance;\n\n    /// @dev Current amount of flash-minted WEDG10 token.\n    uint256 public override flashMinted;\n    \n    constructor() {\n        uint256 chainId;\n        assembly {chainId := chainid()}\n        deploymentChainId = chainId;\n        _DOMAIN_SEPARATOR = _calculateDomainSeparator(chainId);\n    }\n\n    /// @dev Calculate the DOMAIN_SEPARATOR.\n    function _calculateDomainSeparator(uint256 chainId) private view returns (bytes32) {\n        return keccak256(\n            abi.encode(\n                keccak256(\"EIP712Domain(string name,string version,uint256 chainId,address verifyingContract)\"),\n                keccak256(bytes(name)),\n                keccak256(bytes(\"1\")),\n                chainId,\n                address(this)\n            )\n        );\n    }\n\n    /// @dev Return the DOMAIN_SEPARATOR.\n    function DOMAIN_SEPARATOR() external view override returns (bytes32) {\n        uint256 chainId;\n        assembly {chainId := chainid()}\n        return chainId == deploymentChainId ? _DOMAIN_SEPARATOR : _calculateDomainSeparator(chainId);\n    }\n    \n    /// @dev Returns the total supply of WEDG10 token as the ETH held in this contract.\n    function totalSupply() external view override returns (uint256) {\n        return address(this).balance + flashMinted;\n    }\n\n    /// @dev Fallback, `msg.value` of ETH sent to this contract grants caller account a matching increase in WEDG10 token balance.\n    /// Emits {Transfer} event to reflect WEDG10 token mint of `msg.value` from `address(0)` to caller account.\n    receive() external payable {\n        // _mintTo(msg.sender, msg.value);\n        balanceOf[msg.sender] += msg.value;\n        emit Transfer(address(0), msg.sender, msg.value);\n    }\n\n    /// @dev `msg.value` of ETH sent to this contract grants caller account a matching increase in WEDG10 token balance.\n    /// Emits {Transfer} event to reflect WEDG10 token mint of `msg.value` from `address(0)` to caller account.\n    function deposit() external override payable {\n        // _mintTo(msg.sender, msg.value);\n        balanceOf[msg.sender] += msg.value;\n        emit Transfer(address(0), msg.sender, msg.value);\n    }\n\n    /// @dev `msg.value` of ETH sent to this contract grants `to` account a matching increase in WEDG10 token balance.\n    /// Emits {Transfer} event to reflect WEDG10 token mint of `msg.value` from `address(0)` to `to` account.\n    function depositTo(address to) external override payable {\n        // _mintTo(to, msg.value);\n        balanceOf[to] += msg.value;\n        emit Transfer(address(0), to, msg.value);\n    }\n\n    /// @dev `msg.value` of ETH sent to this contract grants `to` account a matching increase in WEDG10 token balance,\n    /// after which a call is executed to an ERC677-compliant contract with the `data` parameter.\n    /// Emits {Transfer} event.\n    /// Returns boolean value indicating whether operation succeeded.\n    /// For more information on {transferAndCall} format, see https://github.com/ethereum/EIPs/issues/677.\n    function depositToAndCall(address to, bytes calldata data) external override payable returns (bool success) {\n        // _mintTo(to, msg.value);\n        balanceOf[to] += msg.value;\n        emit Transfer(address(0), to, msg.value);\n\n        return ITransferReceiver(to).onTokenTransfer(msg.sender, msg.value, data);\n    }\n\n    /// @dev Return the amount of WEDG10 token that can be flash-lent.\n    function maxFlashLoan(address token) external view override returns (uint256) {\n        return token == address(this) ? type(uint112).max - flashMinted : 0; // Can't underflow\n    }\n\n    /// @dev Return the fee (zero) for flash lending an amount of WEDG10 token.\n    function flashFee(address token, uint256) external view override returns (uint256) {\n        require(token == address(this), \"WEDG: flash mint only WEDG10\");\n        return 0;\n    }\n\n    /// @dev Flash lends `value` WEDG10 token to the receiver address.\n    /// By the end of the transaction, `value` WEDG10 token will be burned from the receiver.\n    /// The flash-minted WEDG10 token is not backed by real ETH, but can be withdrawn as such up to the ETH balance of this contract.\n    /// Arbitrary data can be passed as a bytes calldata parameter.\n    /// Emits {Approval} event to reflect reduced allowance `value` for this contract to spend from receiver account (`receiver`),\n    /// unless allowance is set to `type(uint256).max`\n    /// Emits two {Transfer} events for minting and burning of the flash-minted amount.\n    /// Returns boolean value indicating whether operation succeeded.\n    /// Requirements:\n    ///   - `value` must be less or equal to type(uint112).max.\n    ///   - The total of all flash loans in a tx must be less or equal to type(uint112).max.\n    function flashLoan(IERC3156FlashBorrower receiver, address token, uint256 value, bytes calldata data) external override returns (bool) {\n        require(token == address(this), \"WEDG: flash mint only WEDG10\");\n        require(value <= type(uint112).max, \"WEDG: individual loan limit exceeded\");\n        flashMinted = flashMinted + value;\n        require(flashMinted <= type(uint112).max, \"WEDG: total loan limit exceeded\");\n        \n        // _mintTo(address(receiver), value);\n        balanceOf[address(receiver)] += value;\n        emit Transfer(address(0), address(receiver), value);\n\n        require(\n            receiver.onFlashLoan(msg.sender, address(this), value, 0, data) == CALLBACK_SUCCESS,\n            \"WEDG: flash loan failed\"\n        );\n        \n        // _decreaseAllowance(address(receiver), address(this), value);\n        uint256 allowed = allowance[address(receiver)][address(this)];\n        if (allowed != type(uint256).max) {\n            require(allowed >= value, \"WEDG: request exceeds allowance\");\n            uint256 reduced = allowed - value;\n            allowance[address(receiver)][address(this)] = reduced;\n            emit Approval(address(receiver), address(this), reduced);\n        }\n\n        // _burnFrom(address(receiver), value);\n        uint256 balance = balanceOf[address(receiver)];\n        require(balance >= value, \"WEDG: burn amount exceeds balance\");\n        balanceOf[address(receiver)] = balance - value;\n        emit Transfer(address(receiver), address(0), value);\n        \n        flashMinted = flashMinted - value;\n        return true;\n    }\n\n    /// @dev Burn `value` WEDG10 token from caller account and withdraw matching ETH to the same.\n    /// Emits {Transfer} event to reflect WEDG10 token burn of `value` to `address(0)` from caller account. \n    /// Requirements:\n    ///   - caller account must have at least `value` balance of WEDG10 token.\n    function withdraw(uint256 value) external override {\n        // _burnFrom(msg.sender, value);\n        uint256 balance = balanceOf[msg.sender];\n        require(balance >= value, \"WEDG: burn amount exceeds balance\");\n        balanceOf[msg.sender] = balance - value;\n        emit Transfer(msg.sender, address(0), value);\n\n        // _transferEther(msg.sender, value);        \n        (bool success, ) = msg.sender.call{value: value}(\"\");\n        require(success, \"WEDG: ETH transfer failed\");\n    }\n\n    /// @dev Burn `value` WEDG10 token from caller account and withdraw matching ETH to account (`to`).\n    /// Emits {Transfer} event to reflect WEDG10 token burn of `value` to `address(0)` from caller account.\n    /// Requirements:\n    ///   - caller account must have at least `value` balance of WEDG10 token.\n    function withdrawTo(address payable to, uint256 value) external override {\n        // _burnFrom(msg.sender, value);\n        uint256 balance = balanceOf[msg.sender];\n        require(balance >= value, \"WEDG: burn amount exceeds balance\");\n        balanceOf[msg.sender] = balance - value;\n        emit Transfer(msg.sender, address(0), value);\n\n        // _transferEther(to, value);        \n        (bool success, ) = to.call{value: value}(\"\");\n        require(success, \"WEDG: ETH transfer failed\");\n    }\n\n    /// @dev Burn `value` WEDG10 token from account (`from`) and withdraw matching ETH to account (`to`).\n    /// Emits {Approval} event to reflect reduced allowance `value` for caller account to spend from account (`from`),\n    /// unless allowance is set to `type(uint256).max`\n    /// Emits {Transfer} event to reflect WEDG10 token burn of `value` to `address(0)` from account (`from`).\n    /// Requirements:\n    ///   - `from` account must have at least `value` balance of WEDG10 token.\n    ///   - `from` account must have approved caller to spend at least `value` of WEDG10 token, unless `from` and caller are the same account.\n    function withdrawFrom(address from, address payable to, uint256 value) external override {\n        if (from != msg.sender) {\n            // _decreaseAllowance(from, msg.sender, value);\n            uint256 allowed = allowance[from][msg.sender];\n            if (allowed != type(uint256).max) {\n                require(allowed >= value, \"WEDG: request exceeds allowance\");\n                uint256 reduced = allowed - value;\n                allowance[from][msg.sender] = reduced;\n                emit Approval(from, msg.sender, reduced);\n            }\n        }\n        \n        // _burnFrom(from, value);\n        uint256 balance = balanceOf[from];\n        require(balance >= value, \"WEDG: burn amount exceeds balance\");\n        balanceOf[from] = balance - value;\n        emit Transfer(from, address(0), value);\n\n        // _transferEther(to, value);        \n        (bool success, ) = to.call{value: value}(\"\");\n        require(success, \"WEDG: Ether transfer failed\");\n    }\n\n    /// @dev Sets `value` as allowance of `spender` account over caller account's WEDG10 token.\n    /// Emits {Approval} event.\n    /// Returns boolean value indicating whether operation succeeded.\n    function approve(address spender, uint256 value) external override returns (bool) {\n        // _approve(msg.sender, spender, value);\n        allowance[msg.sender][spender] = value;\n        emit Approval(msg.sender, spender, value);\n\n        return true;\n    }\n\n    /// @dev Sets `value` as allowance of `spender` account over caller account's WEDG10 token,\n    /// after which a call is executed to an ERC677-compliant contract with the `data` parameter.\n    /// Emits {Approval} event.\n    /// Returns boolean value indicating whether operation succeeded.\n    /// For more information on {approveAndCall} format, see https://github.com/ethereum/EIPs/issues/677.\n    function approveAndCall(address spender, uint256 value, bytes calldata data) external override returns (bool) {\n        // _approve(msg.sender, spender, value);\n        allowance[msg.sender][spender] = value;\n        emit Approval(msg.sender, spender, value);\n        \n        return IApprovalReceiver(spender).onTokenApproval(msg.sender, value, data);\n    }\n\n    /// @dev Sets `value` as allowance of `spender` account over `owner` account's WEDG10 token, given `owner` account's signed approval.\n    /// Emits {Approval} event.\n    /// Requirements:\n    ///   - `deadline` must be timestamp in future.\n    ///   - `v`, `r` and `s` must be valid `secp256k1` signature from `owner` account over EIP712-formatted function arguments.\n    ///   - the signature must use `owner` account's current nonce (see {nonces}).\n    ///   - the signer cannot be `address(0)` and must be `owner` account.\n    /// For more information on signature format, see https://eips.ethereum.org/EIPS/eip-2612#specification[relevant EIP section].\n    /// WEDG10 token implementation adapted from https://github.com/albertocuestacanada/ERC20Permit/blob/master/contracts/ERC20Permit.sol.\n    function permit(address owner, address spender, uint256 value, uint256 deadline, uint8 v, bytes32 r, bytes32 s) external override {\n        require(block.timestamp <= deadline, \"WEDG: Expired permit\");\n\n        uint256 chainId;\n        assembly {chainId := chainid()}\n\n        bytes32 hashStruct = keccak256(\n            abi.encode(\n                PERMIT_TYPEHASH,\n                owner,\n                spender,\n                value,\n                nonces[owner]++,\n                deadline));\n\n        bytes32 hash = keccak256(\n            abi.encodePacked(\n                \"\\x19\\x01\",\n                chainId == deploymentChainId ? _DOMAIN_SEPARATOR : _calculateDomainSeparator(chainId),\n                hashStruct));\n\n        address signer = ecrecover(hash, v, r, s);\n        require(signer != address(0) && signer == owner, \"WEDG: invalid permit\");\n\n        // _approve(owner, spender, value);\n        allowance[owner][spender] = value;\n        emit Approval(owner, spender, value);\n    }\n\n    /// @dev Moves `value` WEDG10 token from caller's account to account (`to`).\n    /// A transfer to `address(0)` triggers an ETH withdraw matching the sent WEDG10 token in favor of caller.\n    /// Emits {Transfer} event.\n    /// Returns boolean value indicating whether operation succeeded.\n    /// Requirements:\n    ///   - caller account must have at least `value` WEDG10 token.\n    function transfer(address to, uint256 value) external override returns (bool) {\n        // _transferFrom(msg.sender, to, value);\n        if (to != address(0)) { // Transfer\n            uint256 balance = balanceOf[msg.sender];\n            require(balance >= value, \"WEDG: transfer amount exceeds balance\");\n\n            balanceOf[msg.sender] = balance - value;\n            balanceOf[to] += value;\n            emit Transfer(msg.sender, to, value);\n        } else { // Withdraw\n            uint256 balance = balanceOf[msg.sender];\n            require(balance >= value, \"WEDG: burn amount exceeds balance\");\n            balanceOf[msg.sender] = balance - value;\n            emit Transfer(msg.sender, address(0), value);\n            \n            (bool success, ) = msg.sender.call{value: value}(\"\");\n            require(success, \"WEDG: ETH transfer failed\");\n        }\n        \n        return true;\n    }\n\n    /// @dev Moves `value` WEDG10 token from account (`from`) to account (`to`) using allowance mechanism.\n    /// `value` is then deducted from caller account's allowance, unless set to `type(uint256).max`.\n    /// A transfer to `address(0)` triggers an ETH withdraw matching the sent WEDG10 token in favor of caller.\n    /// Emits {Approval} event to reflect reduced allowance `value` for caller account to spend from account (`from`),\n    /// unless allowance is set to `type(uint256).max`\n    /// Emits {Transfer} event.\n    /// Returns boolean value indicating whether operation succeeded.\n    /// Requirements:\n    ///   - `from` account must have at least `value` balance of WEDG10 token.\n    ///   - `from` account must have approved caller to spend at least `value` of WEDG10 token, unless `from` and caller are the same account.\n    function transferFrom(address from, address to, uint256 value) external override returns (bool) {\n        if (from != msg.sender) {\n            // _decreaseAllowance(from, msg.sender, value);\n            uint256 allowed = allowance[from][msg.sender];\n            if (allowed != type(uint256).max) {\n                require(allowed >= value, \"WEDG: request exceeds allowance\");\n                uint256 reduced = allowed - value;\n                allowance[from][msg.sender] = reduced;\n                emit Approval(from, msg.sender, reduced);\n            }\n        }\n        \n        // _transferFrom(from, to, value);\n        if (to != address(0)) { // Transfer\n            uint256 balance = balanceOf[from];\n            require(balance >= value, \"WEDG: transfer amount exceeds balance\");\n\n            balanceOf[from] = balance - value;\n            balanceOf[to] += value;\n            emit Transfer(from, to, value);\n        } else { // Withdraw\n            uint256 balance = balanceOf[from];\n            require(balance >= value, \"WEDG: burn amount exceeds balance\");\n            balanceOf[from] = balance - value;\n            emit Transfer(from, address(0), value);\n        \n            (bool success, ) = msg.sender.call{value: value}(\"\");\n            require(success, \"WEDG: ETH transfer failed\");\n        }\n        \n        return true;\n    }\n\n    /// @dev Moves `value` WEDG10 token from caller's account to account (`to`), \n    /// after which a call is executed to an ERC677-compliant contract with the `data` parameter.\n    /// A transfer to `address(0)` triggers an ETH withdraw matching the sent WEDG10 token in favor of caller.\n    /// Emits {Transfer} event.\n    /// Returns boolean value indicating whether operation succeeded.\n    /// Requirements:\n    ///   - caller account must have at least `value` WEDG10 token.\n    /// For more information on {transferAndCall} format, see https://github.com/ethereum/EIPs/issues/677.\n    function transferAndCall(address to, uint value, bytes calldata data) external override returns (bool) {\n        // _transferFrom(msg.sender, to, value);\n        if (to != address(0)) { // Transfer\n            uint256 balance = balanceOf[msg.sender];\n            require(balance >= value, \"WEDG: transfer amount exceeds balance\");\n\n            balanceOf[msg.sender] = balance - value;\n            balanceOf[to] += value;\n            emit Transfer(msg.sender, to, value);\n        } else { // Withdraw\n            uint256 balance = balanceOf[msg.sender];\n            require(balance >= value, \"WEDG: burn amount exceeds balance\");\n            balanceOf[msg.sender] = balance - value;\n            emit Transfer(msg.sender, address(0), value);\n        \n            (bool success, ) = msg.sender.call{value: value}(\"\");\n            require(success, \"WEDG: ETH transfer failed\");\n        }\n\n        return ITransferReceiver(to).onTokenTransfer(msg.sender, value, data);\n    }\n}\n",
  "sourcePath": "/home/saadjhk/Desktop/WETH10/contracts/WEDG10.sol",
  "compiler": {
    "name": "solc",
    "version": "0.7.6+commit.7338295f.Emscripten.clang"
  },
  "schemaVersion": "3.4.0",
  "updatedAt": "2021-05-05T06:50:17.222Z",
  "devdoc": {
    "details": "Wrapped Ether v10 (WEDG10) is an Ether (ETH) ERC-20 wrapper. You can `deposit` ETH and obtain a WEDG10 balance which can then be operated as an ERC-20 token. You can `withdraw` ETH from WEDG10, which will then burn WEDG10 token in your wallet. The amount of WEDG10 token in any wallet is always identical to the balance of ETH deposited minus the ETH withdrawn with that specific wallet.",
    "kind": "dev",
    "methods": {
      "DOMAIN_SEPARATOR()": {
        "details": "Return the DOMAIN_SEPARATOR."
      },
      "approve(address,uint256)": {
        "details": "Sets `value` as allowance of `spender` account over caller account's WEDG10 token. Emits {Approval} event. Returns boolean value indicating whether operation succeeded."
      },
      "approveAndCall(address,uint256,bytes)": {
        "details": "Sets `value` as allowance of `spender` account over caller account's WEDG10 token, after which a call is executed to an ERC677-compliant contract with the `data` parameter. Emits {Approval} event. Returns boolean value indicating whether operation succeeded. For more information on {approveAndCall} format, see https://github.com/ethereum/EIPs/issues/677."
      },
      "deposit()": {
        "details": "`msg.value` of ETH sent to this contract grants caller account a matching increase in WEDG10 token balance. Emits {Transfer} event to reflect WEDG10 token mint of `msg.value` from `address(0)` to caller account."
      },
      "depositTo(address)": {
        "details": "`msg.value` of ETH sent to this contract grants `to` account a matching increase in WEDG10 token balance. Emits {Transfer} event to reflect WEDG10 token mint of `msg.value` from `address(0)` to `to` account."
      },
      "depositToAndCall(address,bytes)": {
        "details": "`msg.value` of ETH sent to this contract grants `to` account a matching increase in WEDG10 token balance, after which a call is executed to an ERC677-compliant contract with the `data` parameter. Emits {Transfer} event. Returns boolean value indicating whether operation succeeded. For more information on {transferAndCall} format, see https://github.com/ethereum/EIPs/issues/677."
      },
      "flashFee(address,uint256)": {
        "details": "Return the fee (zero) for flash lending an amount of WEDG10 token."
      },
      "flashLoan(address,address,uint256,bytes)": {
        "details": "Flash lends `value` WEDG10 token to the receiver address. By the end of the transaction, `value` WEDG10 token will be burned from the receiver. The flash-minted WEDG10 token is not backed by real ETH, but can be withdrawn as such up to the ETH balance of this contract. Arbitrary data can be passed as a bytes calldata parameter. Emits {Approval} event to reflect reduced allowance `value` for this contract to spend from receiver account (`receiver`), unless allowance is set to `type(uint256).max` Emits two {Transfer} events for minting and burning of the flash-minted amount. Returns boolean value indicating whether operation succeeded. Requirements:   - `value` must be less or equal to type(uint112).max.   - The total of all flash loans in a tx must be less or equal to type(uint112).max."
      },
      "maxFlashLoan(address)": {
        "details": "Return the amount of WEDG10 token that can be flash-lent."
      },
      "permit(address,address,uint256,uint256,uint8,bytes32,bytes32)": {
        "details": "Sets `value` as allowance of `spender` account over `owner` account's WEDG10 token, given `owner` account's signed approval. Emits {Approval} event. Requirements:   - `deadline` must be timestamp in future.   - `v`, `r` and `s` must be valid `secp256k1` signature from `owner` account over EIP712-formatted function arguments.   - the signature must use `owner` account's current nonce (see {nonces}).   - the signer cannot be `address(0)` and must be `owner` account. For more information on signature format, see https://eips.ethereum.org/EIPS/eip-2612#specification[relevant EIP section]. WEDG10 token implementation adapted from https://github.com/albertocuestacanada/ERC20Permit/blob/master/contracts/ERC20Permit.sol."
      },
      "totalSupply()": {
        "details": "Returns the total supply of WEDG10 token as the ETH held in this contract."
      },
      "transfer(address,uint256)": {
        "details": "Moves `value` WEDG10 token from caller's account to account (`to`). A transfer to `address(0)` triggers an ETH withdraw matching the sent WEDG10 token in favor of caller. Emits {Transfer} event. Returns boolean value indicating whether operation succeeded. Requirements:   - caller account must have at least `value` WEDG10 token."
      },
      "transferAndCall(address,uint256,bytes)": {
        "details": "Moves `value` WEDG10 token from caller's account to account (`to`),  after which a call is executed to an ERC677-compliant contract with the `data` parameter. A transfer to `address(0)` triggers an ETH withdraw matching the sent WEDG10 token in favor of caller. Emits {Transfer} event. Returns boolean value indicating whether operation succeeded. Requirements:   - caller account must have at least `value` WEDG10 token. For more information on {transferAndCall} format, see https://github.com/ethereum/EIPs/issues/677."
      },
      "transferFrom(address,address,uint256)": {
        "details": "Moves `value` WEDG10 token from account (`from`) to account (`to`) using allowance mechanism. `value` is then deducted from caller account's allowance, unless set to `type(uint256).max`. A transfer to `address(0)` triggers an ETH withdraw matching the sent WEDG10 token in favor of caller. Emits {Approval} event to reflect reduced allowance `value` for caller account to spend from account (`from`), unless allowance is set to `type(uint256).max` Emits {Transfer} event. Returns boolean value indicating whether operation succeeded. Requirements:   - `from` account must have at least `value` balance of WEDG10 token.   - `from` account must have approved caller to spend at least `value` of WEDG10 token, unless `from` and caller are the same account."
      },
      "withdraw(uint256)": {
        "details": "Burn `value` WEDG10 token from caller account and withdraw matching ETH to the same. Emits {Transfer} event to reflect WEDG10 token burn of `value` to `address(0)` from caller account.  Requirements:   - caller account must have at least `value` balance of WEDG10 token."
      },
      "withdrawFrom(address,address,uint256)": {
        "details": "Burn `value` WEDG10 token from account (`from`) and withdraw matching ETH to account (`to`). Emits {Approval} event to reflect reduced allowance `value` for caller account to spend from account (`from`), unless allowance is set to `type(uint256).max` Emits {Transfer} event to reflect WEDG10 token burn of `value` to `address(0)` from account (`from`). Requirements:   - `from` account must have at least `value` balance of WEDG10 token.   - `from` account must have approved caller to spend at least `value` of WEDG10 token, unless `from` and caller are the same account."
      },
      "withdrawTo(address,uint256)": {
        "details": "Burn `value` WEDG10 token from caller account and withdraw matching ETH to account (`to`). Emits {Transfer} event to reflect WEDG10 token burn of `value` to `address(0)` from caller account. Requirements:   - caller account must have at least `value` balance of WEDG10 token."
      }
    },
    "stateVariables": {
      "allowance": {
        "details": "Records number of WEDG10 token that account (second) will be allowed to spend on behalf of another account (first) through {transferFrom}."
      },
      "balanceOf": {
        "details": "Records amount of WEDG10 token owned by account."
      },
      "flashMinted": {
        "details": "Current amount of flash-minted WEDG10 token."
      },
      "nonces": {
        "details": "Records current ERC2612 nonce for account. This value must be included whenever signature is generated for {permit}. Every successful call to {permit} increases account's nonce by one. This prevents signature from being used multiple times."
      }
    },
    "version": 1
  },
  "userdoc": {
    "kind": "user",
    "methods": {},
    "version": 1
  }
}